:100000000C94D9000C9401010C9401010C94010191
:100010000C9401010C9401010C9401010C94010158
:100020000C9401010C9401010C9418150C94961574
:100030000C9401010C9401010C9401010C94010138
:100040000C9401010C9401010C9401010C94010128
:100050000C9401010C9401010C9401010C942018E2
:100060000C9401010C94EE170C94C8170C94010128
:100070000C9401010C9401010C9401010C940101F8
:100080000C9401010C9401010C9401010C940101E8
:100090000C9401010C9401010C9401010C940101D8
:1000A0000C9401010C9401010C9401010706050454
:1000B0000100080A0B0C0D090000000024002700B5
:1000C0002A002D00300000000000250028002B0031
:1000D0002E003100000000002300260029002C0023
:1000E0002F000404040404030405020202020403B2
:1000F00002020202060606060606040402020204C2
:100100000404080201104080401020408040800814
:100110000204018040201002011080102040402085
:100120000000000200090F0000030401000C0000A1
:1001300000000000000000000000000000000008B7
:100140000B0002020200000904000001020200008C
:1001500005240010010524010101042402060524E0
:100160000600010705810310004009040100020A8E
:10017000000000070502024000000705830240005E
:10018000000403090412010002EF020140501D4F58
:10019000610001010203015348494B005348494B98
:1001A000204E333242007E306D79335B5F707F7B4F
:1001B000C61811241FBECFEFDAE0DEBFCDBF11E0BD
:1001C000A0E0B1E0E4EEF8E402C005900D92A03AA0
:1001D000B107D9F728E0A0EAB1E001C01D92A0352F
:1001E000B207E1F710E0C9EDD0E004C02197FE01AD
:1001F0000E947822C83DD107C9F70E94FD1A0C94CD
:1002000070240C940000CF93DF931F92CDB7DEB71C
:100210006983DC01ED91FC910280F381E02D41E0E6
:1002200050E0BE016F5F7F4F09950F90DF91CF9136
:1002300008958093E9008091F200882319F08AE301
:100240008093E800089583E00C94190140917F03A6
:100250005091800320917D0330917E034217530714
:10026000B4F49091E8009570E1F39091E80092FD6C
:1002700019C08093F10080917F03909180030196D3
:100280008F739927892B19F48EEF8093E800809162
:100290007F039091800301969093800380937F0366
:1002A00081E0089580E00895DF92EF92FF920F932E
:1002B0001F93CF93DF93D82E8A01EB017B01E40ECD
:1002C000F51ECE15DF0559F0D7FE12C0FE01849150
:1002D0000E94260121968111F4CF0FEF1FEFC80174
:1002E000DF91CF911F910F91FF90EF90DF900895D4
:1002F0008881EECF2FB7F89487708093E9009091B2
:10030000E800892F807295FF04C09091F20080E48C
:10031000891B2FBF089583E00E947A0190E0089521
:1003200090918603992319F13FB7F89487708093D1
:10033000E9008091F20090E0481759070CF4CA01D7
:10034000282FFB0154E6215038F02898509382035F
:100350004091F1004193F7CF009739F02091F200DE
:10036000211103C02BE62093E8003FBF08958FEFD3
:100370009FEF08950F931F93CF93DF931F92CDB7F5
:10038000DEB78C01FC018485958597FF0FC041E0A5
:1003900050E0BE016F5F7F4F82E00E9490010197A5
:1003A00071F4898190E0F80195878487F80184854C
:1003B00095850F90DF91CF911F910F9108958FEF49
:1003C0009FEFF1CFCF93DF931F92CDB7DEB7FC0144
:1003D0008485958597FD08C02FEF3FEF35872487EB
:1003E0000F90DF91CF91089541E050E0BE016F5F23
:1003F0007F4F82E00E949001019719F4898190E07B
:10040000EFCF8FEF9FEFECCF9FB7F894877080937B
:10041000E9008091F2009FBF0895FC0184859585D5
:1004200097FD06C082E00E94040290E001960895C4
:1004300082E00E94040290E00895615030F0209123
:10044000F100FC0120830196F8CF289884E6809380
:1004500082030895AF92BF92CF92DF92EF92FF9204
:100460000F931F93CF93DF936C017B018B01040FDC
:10047000151FEB015E01AE18BF08C017D10759F078
:100480006991D601ED91FC910190F081E02DC601BA
:100490000995892B79F7C501DF91CF911F910F91B4
:1004A000FF90EF90DF90CF90BF90AF900895809134
:1004B000750381110DC082E08093710384E0809305
:1004C0007203109274031092730381E0809375039A
:1004D00081E793E008950F931F93CF93DF931F92CB
:1004E000CDB7DEB782E0898342E450E06FE371E08C
:1004F00080E80E9454010E945702DC0112960D917F
:100500001C910115110589F0D801ED91FC91028033
:10051000F381E02DBE016F5F7F4FC801099597FD04
:1005200004C0F80100851185ECCF89810F90DF911F
:10053000CF911F910F910895FC01538D448D252F6C
:1005400030E0842F90E0821B930B541710F0CF966D
:10055000089501970895FC01918D828D981761F09F
:10056000A28DAE0FBF2FB11D5D968C91928D9F5FB6
:100570009F73928F90E008958FEF9FEF0895FC0195
:10058000918D828D981731F0828DE80FF11D858D48
:1005900090E008958FEF9FEF0895FC01918D228DDB
:1005A000892F90E0805C9F4F821B91098F73992760
:1005B000089580E896E00E94CD0221E0892B09F49D
:1005C00020E0822F089580E090E0892B29F00E949E
:1005D000D90281110C9400000895FC01A48DA80F8C
:1005E000B92FB11DA35ABF4F2C91848D90E0019675
:1005F0008F739927848FA689B7892C93A089B18995
:100600008C9182748C93938D848D981306C002888C
:10061000F389E02D80818F7D80830895EF92FF9292
:100620000F931F93CF93DF93EC0181E0888F9B8D15
:100630008C8D981319C0E889F989808185FF14C0D1
:100640009FB7F894EE89FF896083E889F9898081F2
:10065000827480839FBF81E090E0DF91CF911F91F2
:100660000F91FF90EF900895F62E0B8D10E00F5F25
:100670001F4F0F731127E02E8C8D8E110CC00FB6FB
:1006800007FCFACFE889F989808185FFF5CFCE0193
:100690000E94ED02F1CFEB8DEC0FFD2FF11DE35A1F
:1006A000FF4FF0829FB7F8940B8FEA89FB89808116
:1006B0008062CFCFCF93DF93EC01888D8823B9F090
:1006C000AA89BB89E889F9898C9185FD03C080815D
:1006D00086FD0DC00FB607FCF7CF8C9185FFF2CFDA
:1006E000808185FFEDCFCE010E94ED02E9CFDF9141
:1006F000CF91089581508F3008F047C0E82FF0E087
:10070000EC57FC4F0C947822A103A50393039903A3
:100710009D03C503C503C503A803AE03B203B60317
:10072000BC03C503C003809180008F778093800055
:100730000895809180008F7DF9CF80918000877F20
:10074000F5CF84B58F7784BD089584B58F7DFBCFB9
:10075000809190008F778093900008958091900011
:100760008F7DF9CF80919000877FF5CF8091C00079
:100770008F778093C00008958091C0008F7DF9CF5E
:100780008091C200877F8093C2000895CF93DF934A
:10079000282F30E0F901E05EFE4F8491F901EF5F10
:1007A000FE4FD491F901EE51FF4FC491CC23A1F03B
:1007B00081110E947A03EC2FF0E0EE0FFF1FEC5244
:1007C000FF4FA591B491EC91ED2381E090E009F405
:1007D00080E0DF91CF91089580E090E0FACF1F9301
:1007E000CF93DF93282F30E0F901E05EFE4F849134
:1007F000F901EF5FFE4FD491F901EE51FF4FC49123
:10080000CC23A9F0162F81110E947A03EC2FF0E07F
:10081000EE0FFF1FEA53FF4FA591B4918FB7F894E5
:10082000EC91111108C0D095DE23DC938FBFDF91CE
:10083000CF911F910895DE2BF8CFCF93DF9390E0F7
:10084000FC01EF5FFE4F24918E519F4FFC0184917C
:100850008823C9F090E0880F991FFC01E854FF4FEE
:10086000A591B491FC01EA53FF4FC591D491611158
:100870000DC09FB7F8948C91209582238C9388812A
:10088000282328839FBFDF91CF910895623051F4D0
:100890009FB7F8943C91822F809583238C93E881B5
:1008A0002E2BEFCF8FB7F894EC912E2B2C938FBF7C
:1008B000EACF823108F08251E82FF0E0E455FF4F93
:1008C000E49190917B008E2F880F880F80729F7D1E
:1008D000892B80937B00E770E064E0937C0080913B
:1008E0007A00806480937A0080917A0086FDFCCF44
:1008F000809178009091790008953FB7F8948091A5
:100900006D0390916E03A0916F03B091700326B5B3
:10091000A89B05C02F3F19F00196A11DB11D3FBF37
:10092000BA2FA92F982F8827BC01CD01620F711D06
:10093000811D911D42E0660F771F881F991F4A9500
:10094000D1F708958F929F92AF92BF92CF92DF928C
:10095000EF92FF924B015C010E947D046B017C01D0
:100960000E947D046C197D098E099F09683E7340C1
:1009700081059105A8F321E0821A9108A108B10828
:1009800088EEC80E83E0D81EE11CF11C811491048E
:10099000A104B10429F7FF90EF90DF90CF90BF90B2
:1009A000AF909F908F9008957F928F929F92AF9279
:1009B000BF92CF92DF92EF92FF920F931F93CF934C
:1009C000DF93C82E8B017A0180918603811110C0BC
:1009D0008FEF9FEFDF91CF911F910F91FF90EF90DD
:1009E000DF90CF90BF90AF909F908F907F900895B1
:1009F0008091840380FF05C08091E0008260809335
:100A0000E000CE2DDF2DD12C8AEFB82E8C2D8770F3
:100A1000982E8C2D8072882E8C2D8074782E9AE3DF
:100A2000A92E209719F4DD2009F452C08C2D0E94C4
:100A30007A0181110AC0BA94BB2051F261E070E0E2
:100A400080E090E00E94A204ECCF8C171D0611F00C
:100A50000CF08C2F9FB7F8949092E9002091E80059
:100A600025FD02C09FBFDDCF282F30E0C21BD30B76
:100A7000882029F08150A0F01092F100FBCFF801FE
:100A8000C7FC0AC0815050F041914093F100FACF69
:100A900044914093F10031968150D0F7020F131F1B
:100AA000DD2021F0A092E800D12CDCCF8091E8007D
:100AB00085FD07C0A092E800DD24D394209791F231
:100AC000F3CF209779F6772069F2A092E800CACF99
:100AD0005D9884E680938303C7017CCFCF93DF9337
:100AE000EC0180910C01882331F083E00E94D40452
:100AF0001816190634F081E090E09B838A8380E029
:100B000090E0DF91CF9108952FB7F8946091690339
:100B100070916A0380916B0390916C032FBF0895CD
:100B20000E94840560934F05709350058093510592
:100B3000909352051092EA051092590708950F9369
:100B40001F93CF93DF93EC0188810E94C6039B8B98
:100B50008A8B288939898217930751F00E9484056E
:100B60006C8B7D8B8E8B9F8B8A899B89998B888BD5
:100B70000E9484050C891D892E893F89601B710B99
:100B8000820B930B0A811B812C813D8160177107B9
:100B90008207930740F08E859F859D878C878A8981
:100BA0009B899F878E872C853D858E859F852817FD
:100BB000390781F04A855B854230510581F48E8189
:100BC0009F81A885B9850196A11DB11D8E839F8344
:100BD000A887B987DF91CF911F910F910895411593
:100BE000510531F421303105A9F7892B41F3F2CFBA
:100BF0004130510579F7232B69F7019759F7DFCF7A
:100C000090E080E0089580E008950F931F93CF93C4
:100C1000DF93CDB7DEB7C456D1090FB6F894DEBF67
:100C20000FBECDBFFC01DB019C919E5F9C939E019A
:100C3000295F3F4F8AE5D9011D928A95E9F788E03F
:100C400089838BE08A8322E02C8391E09D839E83BD
:100C500039E0398764E06A879E879F873A8B44E250
:100C60004B8B9C8BA0E0B1E0BE8BAD8B09E010E01C
:100C7000188F0F8B998F3B8F6C8F2F8F98A353E01A
:100C800059A387E08CA34DA39EA3B8A7AFA3A1E46B
:100C9000B0E0BAA7A9A786E08BA74CA72DA79EA76F
:100CA0009FA789AB4AAB2BAB2CAB2DAB3FAB48AF6F
:100CB00059AF9AAF5BAF9CAF2DAF9EAF21963FAFC0
:100CC000219722964FAF229723965FAF23972496C2
:100CD0002FAF249725966FAF259726969FAF26971F
:100CE00027969FAF279728969FAF28972A963FAFC2
:100CF0002A9745E02B964FAF2B972D962FAF2D9728
:100D000060E470E02F967FAF6EAF2F9763964FAF82
:100D1000639785E264968FAF649765969FAF6597FA
:100D200066969FAF669767969FAF679768963FAF47
:100D3000689769964FAF69976B962FAF6B976D96D3
:100D40007FAF6EAF6D97A1964FAFA197A2968FAF71
:100D5000A297A3969FAFA397A4969FAFA497A5969B
:100D60005FAFA59792819B839B879F5F9A8F9D8F93
:100D700083812C968FAF2C978F5F80686A968FAF98
:100D80006A9744E650E0BE016F5F7F4F80E00E94AB
:100D90005401CC59DF4F0FB6F894DEBF0FBECDBF64
:100DA000DF91CF911F910F91089587FF0AC09CE0BA
:100DB000980F923030F08D3F21F0803F18F4807F03
:100DC000089580E00895982F9F7E282F2F7C20384B
:100DD00039F0803E29F081E0903C19F080E00895E0
:100DE00081E00895CF93DF93EC01E881F98130979A
:100DF00011F0CB9609958CAD823F09F49EC090F519
:100E0000803C09F486C090F4803909F454C030F471
:100E1000803809F445C0DF91CF910895803A09F4F4
:100E200075C0803BC1F7EA85FB853CC0803E09F474
:100E300059C058F4803D79F7EE85FF85309759F316
:100E40006DAD8BADDF91CF910994803F09F464C003
:100E5000813F09F7EC89FD893097E9F28DADDF918B
:100E6000CF9109948A3F91F180F4863F09F477C0CD
:100E700028F4833F81F6E88DF98DEECF883FF1F0BD
:100E8000893F49F6E8A1F9A11BC08C3F29F108F17F
:100E90008E3F29F18F3F09F0BECFE8A5F9A510C01C
:100EA000EC81FD81309709F4B6CF4EAD6DAD8BADC1
:100EB000DF91CF910994EE81FF81F4CFEC8DFD8D10
:100EC000309709F4A8CFDF91CF910994EE8DFF8D73
:100ED000F7CFEAA1FBA1F4CFECA1FDA1F1CFEEA1E8
:100EE000FFA1EECFE889F989309709F494CF6EAD70
:100EF00020E8629FB001112460787F738DAD8F77F9
:100F0000682B70528BADDF91CF910994E885F985FC
:100F1000C9CFEC85FD8592CFEA89FB89309709F42A
:100F20007ACF6DAD7EAD6138710510F060E870E08C
:100F3000CE01CF96DF91CF910994EE89FF8930974A
:100F400009F469CF8EAD20E8829FC001112480781A
:100F50009F732DAD2F77822BDF91CF910994EA8D6E
:100F6000FB8DAECFDC018D919C91DC01ED91FC916C
:100F70000190F081E02D09941F93CF93DF932150CE
:100F8000203118F587FF21C0D42F162FC82F622FCC
:100F9000682B8091DA059091DB050E94B207612FE2
:100FA0006F778091DA059091DB050E94B207CF7EC2
:100FB000C03C59F06D2F6F778091DA059091DB0579
:100FC000DF91CF911F910C94B207DF91CF911F91C8
:100FD00008956D3F48F46A3F10F4683F39F4FC010E
:100FE000808191810C94B2076E3FC8F70895813ECD
:100FF00010F40C94BC07883F28F0682F8AED95E028
:101000000C94E90708950F931F93CF93DF9300D0BB
:1010100000D0CDB7DEB7FC01208991898289378560
:1010200039832A839B838C8304EA15E0F80183814A
:1010300044E050E0BE016F5F7F4F8F5F0E94D40499
:10104000F80183818F5F0E9419010F900F900F901C
:101050000F90DF91CF911F910F9108950F931F93E0
:10106000CF93DF9300D000D0CDB7DEB78C01262F11
:10107000FC01848195813681303FD9F0009711F4CD
:10108000208B04C08130910581F4618BF80184814B
:1010900095810196958384830F900F900F900F9008
:1010A000DF91CF911F910F910895029779F7628B8D
:1010B000EDCF603F49F48389F0E18F9FC001112497
:1010C0008460F8018787DCCF63E070E00E946422CF
:1010D000AC01273F39F493899295907F85E0840F86
:1010E000982B9787F8014115510521F4208B128A1E
:1010F000118ACCCF4130510519F4218B128AC6CF09
:10110000228B273F19F290898189378539839A8309
:101110008B832C838091A70544E050E0BE016F5F74
:101120007F4F8F5F0E94D4048091A7058F5F0E943C
:101130001901ACCFDC0116966C93169753968C91DF
:10114000539720E1829FC0011124603FE8F4E62F0D
:10115000E295EF70E750FF0BEE0FFF1FE65CFE4FCE
:101160009181892B1F968C931F9752961C925297B0
:1011700051961C92519750961C92509715961C921E
:101180001E92149781E008958460ECCF0F931F9313
:10119000CF93DF93DFEFD20FD03198F587FF31C0C7
:1011A000142F062FC82F682F8091490790914A0766
:1011B0000E949A08882329F16D2F6C2B8091490792
:1011C00090914A070E942E08602F6F7780914907FF
:1011D00090914A070E942E08CF7EC03C41F0612FBB
:1011E0006F778091490790914A070E942E0880915D
:1011F000490790914A07DF91CF911F910F910C946D
:101200000308DF91CF911F910F910895DF92EF9224
:10121000FF920F931F93CF93DF93D82FD62E142FC7
:10122000352FC22F80914D05882399F1242FAFEFE0
:10123000BFE30E9455222FEF33E040E050E00E94D0
:10124000F4218901000F111F2C2F412F6D2F80EBEE
:101250000E94BC077801F594E794E894E7F8FF242E
:101260002C2F4E2D6D2D80EB0E94BC072C2F412F73
:101270006D2F80EB0E94C6082C2F4E2D6D2D80EB1C
:10128000DF91CF911F910F91FF90EF90DF900C9421
:10129000C6086D2F80EB0E94BC072C2F412F6D2FAD
:1012A000EECF0F931F93CF936D3FD8F46A3F10F4A6
:1012B000683FC9F4C62F8C01FC01808191810E9496
:1012C0009A08882381F06C2FF801808191810E9417
:1012D0002E08F80180819181CF911F910F910C947C
:1012E00003086E3F38F7CF911F910F910895813E0B
:1012F00010F40C94C608883F28F0682F89E497E022
:101300000C94510908950F931F93CF93DF93082FE7
:10131000162FD42FC8E06D2F661F6627661F802FFB
:101320000E94EF03DD0F61E0812F0E94EF0360E078
:10133000812F0E94EF03C15071F7DF91CF911F9170
:101340000F9108950F931F93CF93DF9300D0CDB7E4
:10135000DEB78C0169834A8360E0FC0182810E94D0
:10136000EF034981F801648180810E9483094A81E9
:10137000F801648180810E94830961E0F801828123
:101380000F900F90DF91CF911F910F910C94EF036D
:101390000F931F93CF93DF938C01C1E0D0E0F8014E
:1013A000868197818C179D073CF040E06C2FC80127
:1013B0000E94A2092196F3CFDF91CF911F910F9147
:1013C00008950F931F93CF93C82F0E948405009117
:1013D0003B0810913C0820913D0830913E08601B6D
:1013E000710B820B930B6F3F71058105910568F0BE
:1013F00083E398E00E94C80940E86C2F83E398E0FB
:10140000CF911F910F910C94A209CF911F910F9131
:1014100008950F931F93CF93DF93FC01EC57FF4F79
:101420002081222351F1EC01688161506F70898124
:10143000682B8091DA059091DB050E94B2078981C3
:10144000803F11F18E010B571F4FF8018081918170
:10145000029738F06A818091DA059091DB050E944D
:10146000B207F80180819181039738F06B818091F8
:10147000DA059091DB050E94B20781E0DF91CF9100
:101480001F910F910C94E10960EF8091DA05909122
:10149000DB050E94B2078E01A8014C1B5D0B8091F9
:1014A000DA059091DB050F5F1F4F2A813B812138C0
:1014B000310510F020E830E04217530728F4F80116
:1014C00063810E94B207E8CF67EFD5CF6F927F921A
:1014D0008F929F92AF92BF92CF92DF92EF92FF9244
:1014E0000F931F93CF93DF93162FE82FF0E07F0128
:1014F00020E2E20EF11CE701CC0FDD1FCE0189577F
:101500009C4F6F01A0E4CA0ED11C9601220F331F1D
:10151000B90169577C4FDC018D919C91DB016D9184
:101520007C91860F971FDF01AA0FBB1FA95BBB4FE2
:101530006D917C91860F971FDF01AA0FBB1FA957E2
:10154000BB4F6D917C91860F971F5F01AA0CBB1C4E
:10155000D501A957BC4F6D917C91860F971F65E00F
:1015600070E00E946422D501A056BE4F8D919C91DF
:101570008617970779F0C056DE4F888199818617C4
:10158000970741F020563E4FD9018D919C918617C7
:10159000970711F41123C9F18B01DF01AA0FBB1FBB
:1015A000AA0FBB1FA053BB4F8C91811142C04111A8
:1015B00014C0EE0FFF1FEE0FFF1FE453FB4F2381FC
:1015C0002F778FEF820F803178F5A80162818181BA
:1015D0000E94060982E00E94E109D601AA0FBB1F02
:1015E000A056BE4FF701EE0FFF1FE056FE4F808161
:1015F00091818D939C93D501A056BE4F8D919C9166
:101600001197918380830D931C93DF91CF911F914C
:101610000F91FF90EF90DF90CF90BF90AF909F9091
:101620008F907F906F9008952111D4CF2091CC049A
:10163000CCCF7090CC04EE0FFF1FEE0FFF1FEF0119
:10164000C453DB4F6A809801AFEFBFE30E9455227D
:101650002FEF33E040E050E00E94F4214901880C74
:10166000991CC981CF77272D4C2F63E680EB0E9410
:10167000BC07272D4C2F63E680EB0E94C608C62DC1
:10168000CF77272D4C2F62E680EB0E94BC07272DD9
:101690004C2F62E680EB0E94C608272D492D66E09C
:1016A00080EB0E94BC07272D492D66E080EB0E944D
:1016B000C60880914D05882309F48CCF95948794B2
:1016C000E89487F89924272D482D66E280EB0E9444
:1016D000BC07272D482D66E280EB0E94C6087ACF12
:1016E0000F931F93CF93DF932091EC052E3F08F0CB
:1016F00065C0FC01EC57FF4F20812223D1F1EC01A2
:1017000069818091490790914A070E949A0888232D
:1017100051F1688161506F708981682B8091490710
:1017200090914A070E942E08298180914907909143
:101730004A07203F29F18E010B571F4FF8012081E6
:1017400031812230310518F06A810E942E08F8019B
:1017500080819181039738F06B8180914907909146
:101760004A070E942E088091490790914A070E94DB
:10177000030881E0DF91CF911F910F910C94E10953
:1017800060EF0E942E088E01A8014C1B5D0B80911A
:10179000490790914A070F5F1F4F2A813B812138EB
:1017A000310510F020E830E04217530728F4F80123
:1017B00063810E942E08E8CF67EFD3CFDF91CF91EE
:1017C0001F910F9108954F925F926F927F928F9227
:1017D0009F92AF92BF92FF920F931F93CF93DF938D
:1017E00000D000D0CDB7DEB70091DC05013108F0A4
:1017F00078C0E091DA05F091DB0580819181DC0110
:10180000ED91FC910084F185E02D0995892B09F477
:1018100068C080917F068E7F80937F06E091DA0515
:10182000F091DB0580819181DC01ED91FC910284D6
:10183000F385E02D0995182F8D3F09F452C0809152
:10184000E4059091E505009709F03BC11093DF0591
:10185000F090DD058F2D0E94D5060E94E3068823B7
:1018600061F017FD0AC0F092DF051093E00581E0FA
:1018700090E09093E5058093E4051091DF05812FBA
:101880000E94D506813F09F4E5C008F07AC0803B8C
:1018900039F048F4803921F0803A11F0803859F459
:1018A00023E030E0D9C0803D09F4D4C008F058C02E
:1018B000803C09F4CFC080917F06816080937F06D1
:1018C000E091B205F091B305309709F009951092B7
:1018D000E5051092E4051092E3051092E2051092DE
:1018E000DD05F0904B07F0E1FF1540F1009149074D
:1018F00010914A07D8011B968D919C91892B09F470
:101900003CC28091EE078E7F8093EE07E0914907FD
:10191000F0914A07858596859C012F5F3F4F36875A
:1019200025878E0F9F1FDC0117961C918385948558
:101930000197948783871D3F09F054C30F900F9040
:101940000F900F90DF91CF911F910F91FF90BF905B
:10195000AF909F908F907F906F905F904F90089581
:10196000803E09F49DCF803F09F0A5CF20E830E00C
:101970003093E3052093E2051092DD058093EF0597
:101980006FC0873F99F308F05EC0833F09F462C0DF
:1019900008F486CF863F09F08ECF8093EC05109235
:1019A000EB051092ED051092EE0581E080936F0635
:1019B0001092E5051092E4051092E3051092E205FD
:1019C0008091EC05803939F48091EE05811103C0D6
:1019D00080E88093EC058091EC058058813630F4E6
:1019E0008091EB05081711F0011104C080EB95E020
:1019F0000E94F2069091EA05392F317090FF71CF65
:101A0000892F8E7F09F46DCF8091EC0520E8280F97
:101A1000213608F02DC12091EB05021719F031E0B5
:101A2000011130E09695923009F41BC1933009F40E
:101A30001CC1913009F055CF4091EE056091ED0544
:101A40000E94F7074ECF8D3F08F4A7CF8E3F08F0D6
:101A5000A4CF31CF22E030E03093E3052093E205BC
:101A60002091E4053091E5054091E2055091E305B0
:101A70004150510924173507E8F08093EC051F7099
:101A80001F5F1093EB058091E0058093ED051092A8
:101A9000EE0581E090E090937106809370061092BD
:101AA000E5051092E4051092E3051092E20580939B
:101AB0006F0686CF2F5F3F4F3093E5052093E405F7
:101AC00010CF17FF0CC01D3F08F04EC0183F08F0A4
:101AD0004EC0103F09F45AC0173F09F457C0209177
:101AE000DF05FC01E055FA4F203F19F0273F09F0D0
:101AF00076C017AFA090E205B090E30595012150A4
:101B000031098217930708F4AAC0F090DF05F0EFBF
:101B1000FF1619F027EFF21264C010916E0680EFE5
:101B200080936E068093EC0580E88093ED0510921B
:101B3000EE051092EB0580E890E09093710680939B
:101B4000700681E080936F0680EB95E00E94F206BC
:101B500087EF8093EF051093F00582E090E090937B
:101B6000E5058093E405BDCE1E3F08F4B8CF109381
:101B7000EC051092ED051092EE051092EB0581E058
:101B800090E0909371068093700691CF2091EF05BD
:101B9000203F19F0273F09F08ECE9C012F5F3F4F69
:101BA00080559A4FFC0117AF80EF8093EC0520938E
:101BB000ED053093EE051092EB05309371062093FE
:101BC000700681E080936F061092E5051092E4059F
:101BD0001092E3051092E2051092DD05F1CE17A7F1
:101BE00089CF8F2D0E94D506182F8093EC050E9477
:101BF000E306882349F18F2D8F708F5F8093EB056B
:101C00008091E0058093ED058091E10563E0A616E3
:101C1000B10409F080E08093EE051092E505109282
:101C2000E4051092E3051092E20581E080936F06CF
:101C3000103B39F060F4103921F0103A11F01038EF
:101C400059F6F092DD05BCCE1092EB05D9CF103DD0
:101C5000C1F3103EB1F3103C09F0BECFF2CF0196B4
:101C60007ECF332309F43DCEE7CE31113ACEE4CE18
:101C7000E0E1E80FE03108F034CEF0E0EE5BF14F48
:101C80000C947822580EA90E8A0E780E710C710CE5
:101C9000520E710C520E710C520E520E520E710CED
:101CA000520E520E682F8AED95E00E94E90719CE78
:101CB000A090ED05B090EE0581E8A816B10418F0EB
:101CC000A0E8AA2EB12C00EB15E0C801805B95407E
:101CD0008A159B0508F005CED801DF966C9180919E
:101CE000DA059091DB050E94B2070F5F1F4FEDCF21
:101CF0001091ED0563EF8091DA059091DB050E946C
:101D0000B207612F6F778091DA059091DB050E9411
:101D1000B207E7CD0091EE05B0E80B9F80011124DA
:101D20008091ED05082B62EF8091DA059091DB053B
:101D30000E94B207602F6F778091DA059091DB05E2
:101D40000E94B207000F012F001F110B1195602F89
:101D5000D9CF6091ED05E0E16E9FB001112460776D
:101D60001091EE051F70162B61EF8091DA059091AE
:101D7000DB050E94B207612FC6CFF80116861586D3
:101D80008091600390916103A0916203B09163031D
:101D900040916403509165036091660370916703FD
:101DA000841B950BA60BB70B8F739927AA27BB270C
:101DB000892B8A2B8B2B09F47DC080916403909131
:101DC0006503A0916603B0916703880F991F880F80
:101DD000991FFC01E05AFD4F80819181428153811E
:101DE00040906003509061036090620370906303C1
:101DF0008090640390906503A0906603B0906703A1
:101E0000481459046A047B04D1F0809064039090D4
:101E10006503A0906603B0906703FFEF8F1A9F0AD7
:101E2000AF0ABF0A2FE382229924AA24BB248092FE
:101E3000640390926503A0926603B0926703D80191
:101E40001F968C931F9750969C93509751964C9346
:101E5000519752965C935297882329F1282F30E0AE
:101E600064E0359527956A95E1F753966C91539701
:101E70006217130609F062CD8F70682F70E01B9611
:101E80002D913C91FB01EE0FFF1FE65BFE4FE181C0
:101E9000E13009F48AC008F472C0E23009F495C058
:101EA000E33009F471C0F80183859485892B09F426
:101EB00045CD27CD8091A7050E94040250E040E067
:101EC00090E0882309F48CCF8090600390906103A8
:101ED000A0906203B0906303FFEF8F1A9F0AAF0ACE
:101EE000BF0A2FE382229924AA24BB248091640391
:101EF00090916503A0916603B091670388159905D9
:101F0000AA05BB0509F459CF8091A7050E940402D8
:101F100044E050E0BE016F5F7F4F8091A7050E94B3
:101F2000900104970CF449CF809160039091610374
:101F3000A0916203B0916303880F991F880F991FC6
:101F4000805A9D4F49815A816B817C81DC014D9380
:101F50005D936D937C9313978092600390926103DD
:101F6000A0926203B0926303BFEF8B1A9B0AAB0A85
:101F7000BB0AEFE38E229924AA24BB24B7CF843076
:101F800019F06730710571F4F801E20FF31F9783C0
:101F900040872D5F3F4FD8011C963C932E931B9793
:101FA000518781CF6530710561F4A9014F5F5F4FA3
:101FB000F80154874387200F311FD90117969C934E
:101FC00072CF6630710509F06ECFF801E20FF31F92
:101FD00097832E5F3F4FD8011C963C932E931B97FF
:101FE000408761CF8091530790915407009709F083
:101FF000F7C010934E0700914C07802F0E94D50622
:102000000E94E306882361F017FD0AC000934E0783
:1020100010934F0781E090E090935407809353070B
:1020200010914E07812F0E94D506813F09F4A1C06F
:10203000C8F5803B39F048F4803921F0803A11F03E
:10204000803851F423E030E096C0803D09F491C01F
:10205000D0F4803C09F48DC08091EE0781608093BC
:10206000EE07E0912107F0912207309709F00995DA
:102070001092540710925307109252071092510772
:1020800010924C075BCC803EE9F2803F29F720E8B4
:1020900030E0309352072093510710924C07809301
:1020A0005E076DC0873F99F308F05CC0833F09F479
:1020B00060C040F2863F81F680935B0710925A071A
:1020C00010925C0710925D0781E08093DE0710920A
:1020D00054071092530710925207109251078091A3
:1020E0005B07803939F480915D07811103C080E876
:1020F00080935B0780915B078058813630F4809134
:102100005A07F81611F0F11004C08FE197E00E9411
:10211000F20690915907392F317090FF0FCC892F1B
:102120008E7F09F40BCC80915B0720E8280F2136C5
:1021300008F02DC120915A07F21619F031E0F11084
:1021400030E09695923009F41BC1933009F41CC11C
:10215000913009F0F3CB40915D0760915C070E94DC
:102160007709ECCB8D3F08F4A7CF8E3F08F0A4CFC2
:1021700073CF22E030E03093520720935107209133
:1021800053073091540740915107509152074150E5
:10219000510924173507E8F080935B071F701F5F14
:1021A00010935A0780914F0780935C0710925D0748
:1021B00081E090E09093E0078093DF07109254074E
:1021C0001092530710925207109251078093DE0726
:1021D00086CF2F5F3F4F3093540720935307AECBEA
:1021E00017FF0CC01D3F08F04DC0183F08F04DC050
:1021F000103F09F459C0173F09F456C020914E070B
:10220000FC01E15EF84F203F19F0273F09F076C04E
:1022100017AFA0905107B090520795012150310996
:102220008217930708F4AAC000914E07003F19F0E7
:10223000073F09F065C01091DD0780EF8093DD074F
:1022400080935B0780E880935C0710925D07109293
:102250005A0780E890E09093E0078093DF0781E0E1
:102260008093DE078FE197E00E94F20687EF80936C
:102270005E0710935F0782E090E09093540780938D
:1022800053075CCB1E3F08F4B9CF10935B07109245
:102290005C0710925D0710925A0781E090E09093DE
:1022A000E0078093DF0792CF20915E07203F19F06F
:1022B000273F09F0D1CE9C012F5F3F4F815E984FA1
:1022C000DC01DF961C9380EF80935B0720935C0713
:1022D00030935D0710925A073093E0072093DF0791
:1022E00081E08093DE0710925407109253071092FA
:1022F00052071092510710924C07F1CE17A789CFC1
:10230000802F0E94D506182F80935B070E94E3065A
:10231000882349F1802F8F708F5F80935A078091B7
:102320004F0780935C0780915007B3E0AB16B10470
:1023300009F080E080935D071092540710925307D4
:10234000109252071092510781E08093DE07103BF4
:1023500039F060F4103921F0103A11F0103859F6C4
:1023600000934C07BCCE10925A07D9CF103DC1F351
:10237000103EB1F3103C09F0BECFF2CF01967DCFF5
:10238000332309F4DBCAE7CE3111D8CAE4CEE0E149
:10239000E80FE03108F0D2CAF0E0EF52FE4E0C94A4
:1023A0007822E7115B12321210129E0C9E0CE11182
:1023B0009E0CE1119E0CE111E111E1119E0CE11165
:1023C000E111682F89E497E00E945109B7CAA090F3
:1023D0005C07B0905D0760EF8091490790914A07D4
:1023E0000E949A08882309F4A9CA0FE117E0A801FE
:1023F0004F5157408091490790914A070F5F1F4FF7
:102400009501E1E8AE16B10410F020E830E0421783
:10241000530728F5D801DE966C910E942E08E7CF6D
:1024200010915C0763EF8091490790914A070E94E1
:102430009A08882309F482CA63EF80914907909132
:102440004A070E942E08612F6F778091490790916B
:102450004A070E942E088091490790914A070E94DE
:1024600003086CCAF0905C0700915D0762EF8091F1
:10247000490790914A070E949A08882309F45ECA86
:10248000B0E80B9F800111240F2962EF809149076A
:1024900090914A070E942E08602F6F77809149071C
:1024A00090914A070E942E08000F012F001F110B68
:1024B0001195602FC9CF00915D0710915C0761EF06
:1024C0008091490790914A070E949A08882309F44D
:1024D00035CA61EF8091490790914A070E942E0802
:1024E000E0E11E9FB001112460770F70602BADCF2B
:1024F000AF92BF92CF92DF92EF92FF920F931F9312
:10250000CF93DF93CDB7DEB7A2970FB6F894DEBFB7
:102510000FBECDBF2AE0AE014F5F5F4F5A010E9450
:102520006821F50101900020E9F731978F010A1920
:102530001B09B8016F5F7F4F90E080E00E94A323EA
:102540007C01009761F1FC011082B5010E946924B1
:10255000D12CC12CC016D10629F1F701EC0DFD1DBF
:10256000E114F10421F410925305E3E5F5E08081D4
:1025700089831A824AE050E070E060E0C5010E9461
:102580004820FB01EA55FE4F4491602F6C1983E30C
:1025900098E00E94A209FFEFCF1ADF0ADBCF10E01C
:1025A00000E0D6CFE114F10499F0C701A2960FB66E
:1025B000F894DEBF0FBECDBFDF91CF911F910F9179
:1025C000FF90EF90DF90CF90BF90AF900C941A23C4
:1025D000A2960FB6F894DEBF0FBECDBFDF91CF91AC
:1025E0001F910F91FF90EF90DF90CF90BF90AF9031
:1025F0000895682F70E090E080E00E9478120E94B9
:10260000840560933B0870933C0880933D08909349
:102610003E080895CF93C82F47E662E083E398E031
:102620000E94A2096C2F70E090E080E00E94781276
:102630000E94840560933B0870933C0880933D089A
:1026400090933E08CF910895CF92DF92EF92FF9240
:102650001F93CF93DF93182F82E8189F60011124F6
:102660008CECE82E84E0F82EC1E0D0E0C6018C0F9F
:102670009D1F0E94AC21F70181937F012196C338F1
:10268000D105A1F71093C704812FDF91CF911F913E
:10269000FF90EF90DF90CF900C940A13853010F4E8
:1026A0000C9424130895862F653010F40C944E1367
:1026B00008950F931F93CF93C82F882391F1109201
:1026C000CA040E94840500914F0510915005209185
:1026D000510530915205601B710B820B930B6835CD
:1026E000724081059105A0F491E09093CB04809114
:1026F000C804882319F18091C704CC23C9F0843021
:1027000098F48F5F0E944E138091C7040E940A13B1
:1027100083E0809359078093EA05CF911F910F9131
:1027200008951092C904CDCF80E00E942413ECCF0D
:10273000882311F08150E6CF84E0F7CF8091CC045C
:10274000CC2369F0803120F48F5F8093CC0402C0E9
:102750009093CC048091CC040E94F912D9CF82309E
:1027600010F08150F2CF80E1F0CFFF920F931F93D2
:10277000CF93DF93EC01F62E08811981C8010E94E6
:10278000AC21F81621F06F2DC8010E94B421CE01B2
:10279000DF91CF911F910F91FF900895CF92DF921B
:1027A000EF92FF920F931F93CF93DF9300D0CDB79B
:1027B000DEB7DC016430710508F46BC011968C91B2
:1027C0001197803209F065C01296EC911297E15092
:1027D000EE3008F05EC0F0E0E051FC4E0C94782240
:1027E000FE132314541449149814F5144914FA14BC
:1027F000041549147614491449148F1413968C91B6
:102800001397803208F045C015962C9115971496B1
:102810003C9190E0DC01AA0FBB1FAA0FBB1FA45381
:10282000BB4F11963C93119712962C931297880FD9
:10283000991F880F991FFC01E053FB4F108280E81D
:1028400013968C9326C013968C911397803208F5BB
:1028500016962C91169715963C91159714964C91B7
:1028600090E0DC01AA0FBB1FAA0FBB1FA453BB4FF4
:1028700011964C93119712963C931297880F991FBB
:10288000880F991FFC01E053FB4F108220681396BC
:102890002C930F900F90DF91CF911F910F91FF908C
:1028A000EF90DF90CF90089513968C91139780321C
:1028B00080F715963C91159714962C9190E0DC01C9
:1028C000AA0FBB1FAA0FBB1FA453BB4F11963C936B
:1028D000119712962C931297880F991F880F991FA2
:1028E000FC01E053FB4F81E08083A9CF13968C91CC
:1028F000803278F690E0DC01AA0FBB1FAA0FBB1F45
:10290000A453BB4F11961C921197880F991F880FE3
:10291000991FFC01E053FB4F108281E991CF81E0C8
:1029200013969C91911101C080E080934D05B1CF29
:1029300013960C91053008F0ACCF82E8089F800117
:1029400011248EE4C82E85E0D82E9CECE92E94E06C
:10295000F92E0C5C1440F70161917F01C8018E0FC4
:102960009F1F9A838983CE0101960E94B513CE14CE
:10297000DF0489F783E398E00E94C8094BE562E031
:1029800083E398E00E94A2094CE161E083E398E0D0
:102990000E94A2096CE271E080E090E00E94A20433
:1029A0004CE961E083E398E00E94A2096CE271E0E7
:1029B00080E090E00E94A2044CE161E083E398E0B3
:1029C0000E94A2096CE271E080E090E00E94A20403
:1029D0004CE961E083E398E00E94A2096CE271E0B7
:1029E00080E090E00E94A20454CF13968C910E9444
:1029F0004E134FCF10E040E061E0812F0E94660A45
:102A00001F5F1032C1F745CF13968C919FEF980F3F
:102A1000903108F03ECF8093CC043BCF84E0EAE9CC
:102A2000F1E0DB0101900D928A95E1F784E00895D1
:102A30001F920F920FB60F9211242F933F934F9333
:102A40005F936F937F938F939F93AF93BF93CF9336
:102A5000EF93FF93C091E1008091E100837F809329
:102A6000E100C3FF0FC01092E90081E08093EB000A
:102A70001092EC0082E38093ED001092860388E0D0
:102A80008093F000C2FF1BC083E00E941901809177
:102A90008303882341F080918303815080938303D3
:102AA000811101C05D9A80918203882341F0809159
:102AB0008203815080938203811101C0289AC4FF50
:102AC00023C08091E2008E7E81608093E20080913D
:102AD000E1008F7E8093E100809184038E7E80618F
:102AE00080938403FF91EF91CF91BF91AF919F911C
:102AF0008F917F916F915F914F913F912F910F90A7
:102B00000FBE0F901F901895C0FFECCF8091E20090
:102B10008E7E80618093E2008091E1008E7E8093C2
:102B2000E100809184038E7E8160DACF1F920F9244
:102B30000FB60F921124CF92DF92EF92FF920F9374
:102B40001F932F933F934F935F936F937F938F9335
:102B50009F93AF93BF93EF93FF93CF93DF93CDB743
:102B6000DEB76C97DEBFCDBF1092E9008091E80020
:102B700083FF25C068E0CE0145960E941D0282EFCA
:102B80008093E8008D8987FF39C09091E80090FF1D
:102B9000FCCF982F907609F034C19E894F89588DCB
:102BA0002F89F88C911131C0803861F580918503AF
:102BB0008093F1001092F1008EEF8093E8006C9604
:102BC0000FB6F894DEBF0FBECDBFDF91CF91FF915E
:102BD000EF91BF91AF919F918F917F916F915F9195
:102BE0004F913F912F911F910F91FF90EF90DF90A8
:102BF000CF900F900FBE0F901F9018959EEF90935F
:102C0000E800C7CF1092F100D5CF913059F481116F
:102C1000D3CF4130510581F6809185038D7F80931C
:102C20008503CACF933049F48111C6CF4130510595
:102C300019F6809185038260F2CF953041F480913E
:102C4000E80080FFFCCF20682093E300B5CF9630EA
:102C500009F0A9C00B8D1C8D22E01092E9001092A2
:102C6000800310927F03F2122EC010927E03109206
:102C70007D030E946B021F8299E09983FA8291E0A2
:102C80009E8390EA98879AEF998720917F033091ED
:102C90008003275F3F4F3C832B838D831092E90095
:102CA0001092800310927F0310937E0300937D03A4
:102CB00049E050E0BE016F5F7F4F80E00E94540109
:102CC0000E946B0279CF10937E0300937D030E94D4
:102CD0005702DC0112960D911C910115110509F4A2
:102CE00051C1D801ED91FC910480F581E02DBE0128
:102CF0006B5E7F4FC8010995009709F03EC1F8014E
:102D000000851185EACFF3E0FF120EC08F8988237A
:102D100009F440C0823061F440E869E08CE991E058
:102D20000E946A18811148CF81E28093EB0047CF5F
:102D3000813029F440E864E087E991E0F1CF833005
:102D400099F70E945702DC011296ED90FC908E01DB
:102D50000F5F1F4F6801E114F10479F0D701ED9185
:102D6000FC910680F781E02DB801C7010995080F95
:102D7000111DF701E084F184EECFD8011C92F60119
:102D800001900020E9F73197BF016C197D0940E0FF
:102D9000C601C6CF61E871E0FB01449150E080E8D4
:102DA0000E94540109CF973009F4BECF983021F426
:102DB00081E08093F10000CF993009F0FDCE83705F
:102DC00009F0B2CFEEE0F1E081E031E096E321914D
:102DD000222371F08093E9003093EB00DF0111971B
:102DE0002C912093EC009093ED008F5F873079F762
:102DF0008EE78093EA001092EA008F898093860321
:102E0000DBCE8B8D9C8D1092E90010928003109286
:102E10007F0390937E0380937D03898D811192C0FF
:102E20008E899D89913A49F4813209F07DCF47E03E
:102E300050E065E071E080E0B3CF913209F074CFEB
:102E4000833269F48F89988DB0E0A0E0809300010F
:102E500090930101A0930201B0930301ADCE8032A3
:102E600069F48091E80082FFFCCF67E085E091E0A3
:102E70000E941D028BEF8093E8009ECE823209F003
:102E80009BCE8F8980930C01EEEFFFE785919491A3
:102E90008B3F9C4D51F1E0E0F8E08091050190916D
:102EA0000601A0910701B0910801803B9440A10563
:102EB000B105F1F480910C0180FD1AC0EE3F8AE06B
:102EC000F80789F587E797E7918380838091600011
:102ED0008093810388E19BE00FB6F894A8958093D6
:102EE00060000FBE9093600067CEEEEFFAE0D5CFA2
:102EF000808191818737974709F05ECEA8958091B0
:102F000060008861809360008091810380936000FD
:102F1000EE3F2AE0F20789F08091FE0A9091FF0AC5
:102F20009183808349CE808191818737980751F2C0
:102F30009093FF0A8093FE0AC5CF1092FF0A109269
:102F4000FE0A3ACE0E945702DC0112960D911C91A6
:102F50000115110509F4E8CED801ED91FC9101901D
:102F6000F081E02DBE016B5E7F4FC8010995811194
:102F700023CEF80100851185EBCF181619060CF445
:102F80001BCED2CEF1E0FF12BECE65E871E004CFD9
:102F90001F920F920FB60F9211242F933F934F93CE
:102FA0005F936F937F938F939F93AF93BF93EF93B1
:102FB000FF9380E896E00E94ED02FF91EF91BF91B0
:102FC000AF919F918F917F916F915F914F913F91C1
:102FD0002F910F900FBE0F901F9018951F920F9278
:102FE0000FB60F9211242F938F939F93EF93FF931C
:102FF000E0919006F09191068081E0919606F09123
:10300000970682FD1BC09081809199068F5F8F7318
:1030100020919A06821741F0E0919906F0E0E0587D
:10302000F94F958F80939906FF91EF919F918F9122
:103030002F910F900FBE0F901F9018958081F4CFA5
:103040001F920F920FB60F9211242F933F938F93DD
:103050009F93AF93BF938091690390916A03A0916E
:103060006B03B0916C033091680323E0230F2D377D
:1030700058F50196A11DB11D209368038093690343
:1030800090936A03A0936B03B0936C0380916D03DC
:1030900090916E03A0916F03B09170030196A11DF2
:1030A000B11D80936D0390936E03A0936F03B09353
:1030B0007003BF91AF919F918F913F912F910F908E
:1030C0000FBE0F901F90189526E8230F0296A11DA2
:1030D000B11DD2CFEF92FF920F931F93CF93DF9347
:1030E000F82E192FE62E042F81E0860F880F0E94FC
:1030F000260183E00E942601CF2DD12FEC0EFD2E5C
:10310000F11CCE15DF05B9F007FF13C0FE01849155
:103110000E942601182F80E00E942601812321961B
:103120008111EFCFDF91CF911F910F91FF90EF9021
:1031300008958881EDCF81E0F5CFCF93DF93EC0147
:10314000862F688379831A821B821C821D821E82CD
:103150001F82188619861B861A8662E00E941D044B
:1031600088810E94C6039D878C8788810E94C60340
:103170009F878E8788810E94C603998B888B1C8AC3
:103180001D8A1E8A1F8ADF91CF910895CF93DF9306
:10319000109257051092560588EE93E0A0E0B0E03B
:1031A0008093580590935905A0935A05B0935B05F9
:1031B0002EE631E030935505209354052FEF3FEF75
:1031C0003093610520936005109283061092820669
:1031D0008093840690938506A0938606B093870615
:1031E00080E891E090938106809380068DEC90E0DA
:1031F00090938D0680938C068CEC90E090938F06D4
:1032000080938E0688EC90E09093910680939006D0
:1032100089EC90E090939306809392068AEC90E07C
:1032200090939506809394068EEC90E09093970689
:10323000809396061092990610929A0610929B0619
:1032400010929C0682E08093A8058093A9058EEADF
:1032500095E09093AB058093AA051092AD0510926E
:10326000AC0582E991E09093A5058093A40580E8E0
:103270008093AE0581E88093AF050E945702FC0160
:1032800081819091A805482F490F5527551F483037
:1032900051059CF5A281B381109709F524EA35E028
:1032A0003383228320812093A6058093A7058091F4
:1032B000A905820F80832091AA05A22FB091AB05AA
:1032C0008A2F821B8917C8F481813D91C82FD0E0D5
:1032D000C35FDE4F38838F5F8183F2CFD9011896A9
:1032E0002D913C91199721153105C1F724EA35E05C
:1032F00019963C932E931897D5CF10923F0880E1F2
:1033000090E090933408809333088AE090E09093A3
:103310003608809335088FE090E0909338088093CA
:10332000370861E080E10E941D0461E0809135086A
:103330000E941D0461E0809137080E941D0461E035
:10334000809135080E94EF0365E170E08BE198E021
:103350000E949D1864E170E083E098E00E949D184F
:10336000109202081092200710921F071092220755
:10337000109221071092240710922307109226071B
:1033800010922507109228071092270710922A07FB
:103390001092290710922C0710922B0710922E07DB
:1033A00010922D071092300710922F0710923207BB
:1033B000109231071092340710923307109236079B
:1033C00010923507109238071092370710923A077B
:1033D0001092390710923C0710923B0710923E075B
:1033E00010923D071092400710923F07109242073B
:1033F000109241071092440710924307109246071B
:103400001092450710924807109247078FEE97E0F9
:1034100090934A078093490710924B0710924C07EC
:1034200010924D07109252071092510710925407B4
:10343000109253078FEF9FEF909356078093550795
:10344000909358078093570723E0209359071092D1
:103450005A0710925B0710925C0710925D0710925A
:10346000DE0720E8EEE5F7E0DF01322F1D923A9506
:10347000E9F71092E1071092E2071092E307109229
:10348000E4071092E5071092E6071092E707109202
:10349000E8071092E9071092EA071092EB071092E2
:1034A000EC071092ED071092EE0740E856E05093BB
:1034B0001E0740931D071092B1051092B00510929F
:1034C000B3051092B2051092B5051092B405109292
:1034D000B7051092B6051092B9051092B805109272
:1034E000BB051092BA051092BD051092BC05109252
:1034F000BF051092BE051092C1051092C005109232
:10350000C3051092C2051092C5051092C405109211
:10351000C7051092C6051092C9051092C8051092F1
:10352000CB051092CA051092CD051092CC051092D1
:10353000CF051092CE051092D1051092D0051092B1
:10354000D3051092D2051092D5051092D405109291
:10355000D7051092D6051092D9051092D8054DE1E5
:1035600057E05093DB054093DA051092DC0510928A
:10357000DD051092DE051092E3051092E20510922F
:10358000E5051092E4059093E7058093E605909396
:10359000E9058093E80583E08093EA051092EB0546
:1035A0001092EC051092ED051092EE0510926F0648
:1035B000EFEEF5E0DF011D922A95E9F71092720611
:1035C0001092730610927406109275061092760689
:1035D00010927706109278061092790610927A0669
:1035E00010927B0610927C0610927D0610927E0649
:1035F00010927F06DF91CF910895CF93DF93CDB7DF
:10360000DEB7C45AD1090FB6F894DEBF0FBECDBFE6
:10361000789484B5826084BD84B5816084BD85B5AD
:10362000826085BD85B5816085BD80916E008160B9
:1036300080936E001092810080918100826080935F
:103640008100809181008160809381008091800061
:1036500081608093800080919100826080939100CE
:1036600080919100816080939100809190008160B1
:10367000809390008091C10084608093C10080910C
:10368000C10082608093C1008091C10081608093FD
:10369000C1008091C30081608093C3008091C0000D
:1036A00082608093C0008091C20081608093C200DC
:1036B00080917A00846080937A0080917A008260A1
:1036C00080937A0080917A00816080937A00809163
:1036D0007A00806880937A001092860310928503A6
:1036E000109284038091D70081608093D70080EA94
:1036F0008093D80089B5806189BD89B5826089BD14
:1037000009B400FEFDCF61E070E080E090E00E942F
:10371000A2048091D8008F7C80618093D800809132
:10372000E000807F8093E0008091E1008E7E8093B6
:10373000E1008DE08093E200559A209A41E06AE032
:1037400083E398E00E94A20982E090E090933A0817
:103750008093390840E06FE083E398E00E94A2097B
:1037600041E06BE083E398E00E94A20940E069E059
:1037700083E398E00E94A20983E398E00E94C809CD
:1037800041E06CE083E398E00E94A20982E080932C
:10379000400883E08093410884E08093420885E0FC
:1037A0008093430800E418E061E0D8018D918D0119
:1037B0000E941D04B8E004341B07B1F76AE070E012
:1037C00080E090E00E94A2040E9484056093460875
:1037D00070934708809348089093490888E0809345
:1037E000440860E00E941D0489E08093450860E081
:1037F0000E941D0461E081E00E941D0461E081E0FF
:103800000E94EF0361E081E10E941D0462E085E116
:103810000E941D0462E084E10E941D0460E088E0D3
:103820000E941D0460E089E00E941D0482E390E094
:10383000A0E0B0E080931D0890931E08A0931F089D
:10384000B09320088093050890930608A09307087A
:10385000B093080885E10E94C6038C01892B89F486
:1038600060E081E10E94EF030E948405603A7F409E
:103870008105910508F0ECC385E10E94C603892B00
:1038800099F38DEF93E00E94AC21082F8EEF93E027
:103890000E94AC21182F8FEF93E00E94AC210330DF
:1038A00029F4111103C0813009F4A7C015E061E0CB
:1038B00081E10E94EF036CE271E080E090E00E9401
:1038C000A20460E081E10E94EF036CE271E080E01D
:1038D00090E00E94A204115051F71A82198260E010
:1038E0008E010F5F1F4FC8010E94B51381E08983CD
:1038F00080E2EAE1F1E0DE01AD57BF4F01900D92A9
:103900008A95E1F7AE014D575F4F20E030E8DA01CC
:103910008D91AD01E82FF0E0DF01AA0FBB1FAA0FC8
:10392000BB1FA00FB11F11962C93119760E2620F7D
:1039300012966C9312973196EE0FFF1FEE0FFF1F3A
:10394000E00FF11F108213963C932F5F2032F9F69F
:1039500081E0CE57DF4F8883C258D040AA24BB24D1
:10396000A01AB10AA5E0DA2E4801B2E88B0E911C2C
:103970007801F70161917F01CF018A0D9B1DCD5523
:10398000DF4F99838883C35AD040CE018D559F4F16
:103990000E94B513E814F90461F7DA94F2E8AF0E67
:1039A000B11CD110E5CF8DEF93E0CD55DF4F99835A
:1039B0008883C35AD04063E0CE018D559F4F0E944B
:1039C000B5138EEF93E0CD55DF4F99838883C35AAB
:1039D000D04060E0CE018D559F4F0E94B5138FEF10
:1039E00093E0CD55DF4F99838883C35AD04061E07F
:1039F000CE018D559F4F0E94B51390E080E00E944C
:103A0000AC210E944E1389E09AE0909320078093A6
:103A10001F0780E79BE09093B1058093B0058EEC83
:103A200093E1909332078093310783E593E190937C
:103A30002C0780932B079093BD058093BC05E091E4
:103A40004907F0914A071582148216861586148656
:103A5000138610924B0710924D0710924C0710924C
:103A600054071092530710925207109251070FEF0C
:103A70001FEF1093560700935507109358070093B4
:103A800057070E9484056093E1077093E2078093D3
:103A9000E3079093E4071092DE0710925B07109201
:103AA0005A0710925C0710925D071092E00710927F
:103AB000DF0780915907817082608E7F809359075C
:103AC000E091DA05F091DB050190F081E02DA0890D
:103AD000B18982E08C93A485B5851C92A685B785B3
:103AE0008FE38C93108EA489B58986E08C93A2898C
:103AF000B3898C9180618C93A289B3898C91886001
:103B00008C93A289B3898C9180688C930288F38905
:103B1000E02D80818F7D80831092DC051092DE0580
:103B20001092DD051092E5051092E4051092E30570
:103B30001092E2051093E7050093E6051093E9055E
:103B40000093E8050E9484056093720670937306E3
:103B5000809374069093750610926F061092EC0590
:103B60001092EB051092ED051092EE051092710681
:103B7000109270068091EA05817082608160809366
:103B8000EA0583E0809359076EEF89E497E00E948D
:103B900051096EEF8AED95E00E94E907F0E0EF2E03
:103BA000F0E0FF2E80914E05882309F4ACC013E0AD
:103BB00083E398E00E94C80940E162E083E398E073
:103BC0000E94A20964E670E080E090E00E94A204F6
:103BD00083E398E00E94C80948E162E083E398E04B
:103BE0000E94A20964E670E080E090E00E94A204D6
:103BF00083E398E00E94C8094CE162E083E398E027
:103C00000E94A20964E670E080E090E00E94A204B5
:103C100083E398E00E94C8094DE062E083E398E006
:103C20000E94A20964E670E080E090E00E94A20495
:103C300083E398E00E94C80945E062E083E398E0EE
:103C40000E94A20941E061E083E398E00E94A2099A
:103C500064E670E080E090E00E94A20483E398E0D4
:103C60000E94C80941E062E083E398E00E94A20953
:103C700041E261E083E398E00E94A20964E670E01B
:103C800080E090E00E94A20483E398E00E94C809CB
:103C900041E661E083E398E00E94A20964E670E0F7
:103CA00080E090E00E94A20483E398E00E94C809AB
:103CB00042E661E083E398E00E94A20964E670E0D6
:103CC00080E090E00E94A20483E398E00E94C8098B
:103CD00042E461E083E398E00E94A20940E162E0EF
:103CE00083E398E00E94A20964E670E080E090E03F
:103CF0000E94A20483E398E00E94C809115009F0D1
:103D000057CF10924E0580910401882309F450C0CA
:103D100013E083E398E00E94C80948E061E083E390
:103D200098E00E94A20948E062E083E398E00E94E4
:103D3000A2096FEA70E080E090E00E94A20483E3B1
:103D400098E00E94C80941E061E083E398E00E94A6
:103D5000A20941E062E083E398E00E94A2096FEAD1
:103D600070E080E090E00E94A20483E398E00E946B
:103D7000C80940E461E083E398E00E94A20940E4BE
:103D800062E083E398E00E94A2096FEA70E080E0BD
:103D900090E00E94A20483E398E00E94C8091150B9
:103DA00009F0B7CF8091CC040E94F912109204015F
:103DB0000E94840500914608109147082091480808
:103DC00030914908601771078207930709F47CC096
:103DD000EFE3CE2EE8E0DE2EB12C80913F081B2DC4
:103DE000180F1032E8F50E94E30B812F90E0DC0100
:103DF000AA0FBB1FA957BB4FFC01EE0FFF1FE95BCA
:103E0000FB4F208131812D933C93DC01AA0FBB1F16
:103E1000A95FBB4F2D913C91119731832083FC0109
:103E2000EE0FFF1FE953FC4F208131812D933C930E
:103E3000880F991F8C0109571C4FD8018D919C91B7
:103E40009183808380914D05F601882309F4F4C0A5
:103E500085810E945904D8018D939C930E94E30BA5
:103E6000B0E1BB0EEFEFCE1ADE0AF0E2BF12B5CF23
:103E700080913F088F5F803108F0E7C080933F0852
:103E800000E418E0D12CC12C60913F0870E00C2CAC
:103E900002C0759567950A94E2F76170D8018D911B
:103EA0008D010E94EF03BFEFCB1ADB0AE4E0CE16D0
:103EB000D10451F70E948405609346087093470827
:103EC000809348089093490810E04091CB0460E04B
:103ED000812F0E94660A1F5F1032B9F70E94840585
:103EE00000913B0810913C0820913D0830913E081C
:103EF000601B710B820B930B6F3F71058105910560
:103F000020F083E398E00E94C8098BE198E00E94CA
:103F10009F0583E098E00E949F058091270890917B
:103F20002808019759F48091290890912A08892B33
:103F300029F481E08093CA040E94900580910F08C3
:103F400090911008019759F48091110890911208EE
:103F5000892B29F481E08093C9040E949005809107
:103F6000270890912808892B49F48091290890917D
:103F70002A08019719F481E00E94591380910F08D3
:103F800090911008892B49F48091110890911208A2
:103F9000019719F480E00E9459131091CA0411117D
:103FA00004C08091C904882331F10E948405809067
:103FB0004F0590905005A0905105B090520568199A
:103FC00079098A099B09693E73408105910598F03A
:103FD000112331F01092C8048091CC040E94F91290
:103FE0008091C904882339F081E08093C8048091CE
:103FF000C7040E940A130E94840500914F05109186
:1040000050052091510530915205601B710B820BB8
:10401000930B653F71408105910510F01092CB0420
:10402000E114F10409F4BECD0E94D902882309F4F9
:10403000B9CD0E940000B6CD85810E94590423E0CD
:10404000959587952A95E1F706CF10923F0818CFEE
:1040500081E080934E0561E081E10E94EF0364E11D
:1040600070E080E090E00E94A20460E081E10E94A4
:10407000EF0360E0C8010E94B4210F5F1F4F0115DC
:10408000F4E01F07B1F761E081E10E94EF03F9CB93
:10409000B0E0A0E0EEE4F0E20C941F225C016B01C2
:1040A0007A016115710519F0FB0191838083E11498
:1040B000F10451F0C7010297839730F040E030E0FF
:1040C00020E090E072C05E01E5012196F5011081CB
:1040D000812F90E00E945F21892BA9F71D3201F505
:1040E0002196F501118101E0E114F10409F4DAC02F
:1040F000F0E1EF16F10409F082C0103359F4888121
:104100008F7D883509F076C0198122960260F0E132
:10411000EF2EF12C812C912CA12C88E0B82E8CC094
:104120001B3221F4E5012296F501118100E0DCCF7C
:10413000EAE0EE16F10409F4BBC0F0E1EF16F10479
:1041400009F06DC0E7CF78E0E72EF12C812C912C9F
:10415000A12C60E1B62E70C03FE9310F3A3128F44E
:1041600039EA332E80C021E09AC0302F3170C1145B
:10417000D10431F0222309F12197F601D183C083C4
:1041800027FF21C060E070E080E090E8311104C0BA
:104190006FEF7FEF8FEF9FE722E230E030934B0825
:1041A00020934A08462F372F282F642F732F822FF2
:1041B000CDB7DEB7E1E10C943B2201FF04C02297AA
:1041C000F601D183C083332341F09095809570959B
:1041D00061957F4F8F4F9F4FE5CF97FFE3CF82E2EF
:1041E00090E090934B0880934A086FEF7FEF8FEF3A
:1041F0009FE7D8CF10E3E114F10409F4A4CF28E03D
:10420000E216F10409F4A2CF0CF092CF812C912C8C
:10421000A12CE0E4BE2E82E0E816F10469F060E033
:1042200070E080E090E897010F2C000C440B550BD8
:104230000E94D22149015A0120E060E070E0CB01E8
:1042400027010F2C000C66087708FE0150ED352E73
:10425000310E39E0331540F43FEB310F3A3108F0BD
:104260007BCF49EC342E310E3E141F040CF07DCF71
:1042700027FD15C086169706A806B90678F0A30193
:1042800092010E94C221630D711D811D911D61303B
:104290007105810520E8920708F465CF2FEF21967C
:1042A0001081D3CF103309F42ACF2AE0E22EF12C6B
:1042B0009CEC892E982CA82C9CE0B92EBDCF911196
:1042C0000C949921803219F089508550C8F70895CF
:1042D000BB272A3051F4992342F4BDE29095809592
:1042E000709561957F4F8F4F9F4F0C947821BB271E
:1042F000FA01A62F6217710581059105330B30FB7A
:1043000066F0AA27660F771F881F991FAA1FA2179A
:1043100010F0A21B63953850A9F7A05DAA3308F0EE
:10432000A95DA19336F7B111B1931082CA010C9423
:104330009C21992788270895DC01FC01672F719142
:104340007723E1F7329704C07C916D93708362917B
:10435000AE17BF07C8F30895F999FECF92BD81BD8E
:10436000F89A992780B50895262FF999FECF1FBA9C
:1043700092BD81BD20BD0FB6F894FA9AF99A0FBE8E
:1043800001960895DB018F939F930E941322BF91A2
:10439000AF91A29F800D911DA39F900DB29F900D94
:1043A00011240895A1E21A2EAA1BBB1BFD010DC00A
:1043B000AA1FBB1FEE1FFF1FA217B307E407F507D5
:1043C00020F0A21BB30BE40BF50B661F771F881FB1
:1043D000991F1A9469F760957095809590959B0147
:1043E000AC01BD01CF010895052E97FB1EF400948A
:1043F0000E940B2257FD07D00E94D22107FC03D058
:104400004EF40C940B2250954095309521953F4FDA
:104410004F4F5F4F089590958095709561957F4FB0
:104420008F4F9F4F08950E945522A59F900DB49FD6
:10443000900DA49F800D911D112408952F923F92FD
:104440004F925F926F927F928F929F92AF92BF92A4
:10445000CF92DF92EF92FF920F931F93CF93DF9350
:10446000CDB7DEB7CA1BDB0B0FB6F894DEBF0FBEAD
:10447000CDBF09942A88398848885F846E847D84FA
:104480008C849B84AA84B984C884DF80EE80FD80FC
:104490000C811B81AA81B981CE0FD11D0FB6F89472
:1044A000DEBF0FBECDBFED010895A29FB001B39F47
:1044B000C001A39F700D811D1124911DB29F700D2D
:1044C000811D1124911D0895AA1BBB1B51E107C03A
:1044D000AA1FBB1FA617B70710F0A61BB70B881F94
:1044E000991F5A95A9F780959095BC01CD01089523
:1044F000EE0FFF1F0590F491E02D09940F931F9389
:10450000CF93DF938230910510F482E090E0E09148
:104510004E08F0914F0830E020E0B0E0A0E0309786
:1045200099F42115310509F44AC0281B390B2430B0
:104530003105D8F58A819B816115710589F1FB01EF
:1045400093838283FE0111C04081518102811381D6
:1045500048175907E0F04817590799F4109761F088
:1045600012960C93129713961C933296CF01DF91FB
:10457000CF911F910F91089500934E0810934F080B
:10458000F4CF2115310551F04217530738F0A90136
:10459000DB019A01BD01DF01F801C1CFEF01F9CFC5
:1045A00090934F0880934E08CDCFFE01E20FF31F8A
:1045B000819391932250310939832883D7CF209159
:1045C0004C0830914D08232B41F420911601309175
:1045D000170130934D0820934C082091140130911D
:1045E00015012115310541F42DB73EB74091180151
:1045F00050911901241B350BE0914C08F0914D08A6
:10460000E217F307A0F42E1B3F0B2817390778F0A9
:10461000AC014E5F5F4F2417350748F04E0F5F1F08
:1046200050934D0840934C08819391939FCFF0E0B5
:10463000E0E09CCFCF93DF930097E9F0FC01329745
:1046400013821282A0914E08B0914F08ED0130E024
:1046500020E01097A1F420813181820F931F2091D7
:104660004C0830914D082817390709F061C0F093C4
:104670004D08E0934C08DF91CF910895EA01CE17E1
:10468000DF07E8F54A815B819E0141155105B1F7CD
:10469000E901FB83EA8349915991C40FD51FEC17B7
:1046A000FD0761F4808191810296840F951FE901D5
:1046B00099838883828193819B838A83F0E0E0E001
:1046C00012968D919C9113970097B9F52D913C917D
:1046D0001197CD010296820F931F20914C083091C3
:1046E0004D082817390739F6309751F510924F08C1
:1046F00010924E08B0934D08A0934C08BCCFD383C2
:10470000C28340815181840F951FC817D90761F476
:104710004E5F5F4F88819981480F591F51834083B5
:104720008A819B81938382832115310509F0B0CF63
:10473000F0934F08E0934E089ECFFD01DC01C0CFFF
:1047400013821282D7CFB0E0A0E0E9EAF3E20C9442
:1047500020228C01009751F4CB010E947E228C0113
:10476000C801CDB7DEB7E0E10C943C22FC01E60FB6
:10477000F71F9C0122503109E217F30708F49DC08E
:10478000D901CD91DC911197C617D70798F0C530A4
:10479000D10530F3CE0104978617970708F3C61B9F
:1047A000D70B2297C193D1936D937C93CF010E9435
:1047B0001A23D6CF5B01AC1ABD0A4C018C0E9D1E8C
:1047C000A0914E08B0914F08512C412CF12CE12CB6
:1047D000109731F580914C0890914D0888159905F6
:1047E00009F05CC04616570608F058C080911401C5
:1047F00090911501009741F48DB79EB74091180133
:1048000050911901841B950BE817F90708F055C062
:10481000F0934D08E0934C08F90171836083A0CFB9
:104820008D919C91119712966C90129713967C9093
:104830001397A815B90559F56C0142E0C40ED11CB7
:10484000CA14DB0420F1AC014A195B09DA011296A3
:10485000159780F06282738251834083D9016D93F2
:104860007C93E114F10471F0D7011396FC93EE935D
:10487000129776CF22968C0F9D1FF901918380832A
:10488000F301EFCFF0934F08E0934E0869CF48163D
:10489000590608F42C017D01D3019ACFCB010E9467
:1048A0007E227C01009749F0AE01B8010E9460248D
:1048B000C8010E941A23870153CF10E000E050CFB7
:1048C000FB01DC0102C001900D9241505040D8F72D
:1048D0000895FB01DC0101900D920020E1F708959D
:0448E000F894FFCF7A
:1048E400FFFFFFFF0100E100000000000000C180A5
:1048F400810000000000500880000F0E0C091F18F2
:1049040014100D0B0A021E191511080704011D1AB3
:104914001612060503001C1B1713000080089009DB
:10492400A00AB00BC00CD00DE00E00000100020282
:1049340003030400050006000700080309030A0333
:104944000B030C020D020E030F0100000000030113
:104954006E058B0123010D02E201BA010000000083
:104964000E032A029C025A03CD02AB02BF020000CE
:1049740000000306050600060E154D4944490000D3
:00000001FF
